:0400000007EF00F016
:0A00080075821BED08F01EEF13F0E7
:10100000003132333435363738392A30235065646D
:101010006573747269616E204D6F76650048617208
:10102000727920557021210043617273204D6F76D3
:101030006500256900000600FACF3FF0FBCF40F0C5
:10104000D9CF41F0DACF42F0F2A829EF08F02BEF28
:1010500008F034EF08F0F2A230EF08F032EF08F0B9
:1010600034EF08F091EC14F0F0A639EF08F03BEF04
:1010700008F044EF08F0F0A040EF08F042EF08F06D
:1010800044EF08F07AEC14F0F0A849EF08F04BEFC9
:1010900008F054EF08F0F0A250EF08F052EF08F01B
:1010A00054EF08F063EC14F0F2A659EF08F05BEF90
:1010B00008F076EF08F0F2A060EF08F062EF08F0B9
:1010C00076EF08F081A867EF08F069EF08F076EF97
:1010D00008F00750D8A46FEF08F071EF08F076EF32
:1010E00008F0010E076E000EEFEC14F0F2A67BEF95
:1010F00008F07DEF08F098EF08F0F2A082EF08F01A
:1011000084EF08F098EF08F081B889EF08F08BEFD2
:1011100008F098EF08F00704D8A491EF08F093EFD7
:1011200008F098EF08F0000E076E010EEFEC14F0D7
:10113000F2A69DEF08F09FEF08F0BAEF08F0F2A0DA
:10114000A4EF08F0A6EF08F0BAEF08F081AAABEF21
:1011500008F0ADEF08F0BAEF08F00850D8A4B3EFEC
:1011600008F0B5EF08F0BAEF08F0010E086E000EB7
:10117000E2EC14F0F2A6BFEF08F0C1EF08F0DCEFEC
:1011800008F0F2A0C6EF08F0C8EF08F0DCEF08F0B6
:1011900081BACDEF08F0CFEF08F0DCEF08F00804DB
:1011A000D8A4D5EF08F0D7EF08F0DCEF08F0000E78
:1011B000086E010EE2EC14F0F2A6E1EF08F0E3EFA6
:1011C00008F0FEEF08F0F2A0E8EF08F0EAEF08F010
:1011D000FEEF08F081ACEFEF08F0F1EF08F0FEEF62
:1011E00008F00950D8A4F7EF08F0F9EF08F0FEEF87
:1011F00008F0010E096E000ED5EC14F0F2A603EF14
:1012000009F005EF09F020EF09F0F2A00AEF09F06C
:101210000CEF09F020EF09F081BC11EF09F013EF9A
:1012200009F020EF09F00904D8A419EF09F01BEF29
:1012300009F020EF09F0000E096E010ED5EC14F054
:10124000F2A625EF09F027EF09F042EF09F0F2A02E
:101250002CEF09F02EEF09F042EF09F081AE33EFE9
:1012600009F035EF09F042EF09F00A50D8A43BEF3E
:1012700009F03DEF09F042EF09F0010E0A6E000E91
:10128000C8EC14F0F2A647EF09F049EF09F064EF5B
:1012900009F0F2A04EEF09F050EF09F064EF09F009
:1012A00081BE55EF09F057EF09F064EF09F00A0429
:1012B000D8A45DEF09F05FEF09F064EF09F0000ECC
:1012C0000A6E010EC8EC14F09DAC69EF09F06BEFEB
:1012D00009F074EF09F09EAC70EF09F072EF09F0BD
:1012E00074EF09F025EC15F0F2AA79EF09F07BEF25
:1012F00009F084EF09F0F2A480EF09F082EF09F021
:1013000084EF09F019EC14F09DA089EF09F08BEF40
:1013100009F094EF09F09EA090EF09F092EF09F028
:1013200094EF09F00EEC15F09DA299EF09F09BEFF8
:1013300009F0A4EF09F09EA2A0EF09F0A2EF09F0D6
:10134000A4EF09F019EC15F0A0A2A9EF09F0ABEF9A
:1013500009F0B4EF09F0A1A2B0EF09F0B2EF09F083
:10136000B4EF09F008EC15F09DA4B9EF09F0BBEF5C
:1013700009F0C4EF09F09EA4C0EF09F0C2EF09F034
:10138000C4EF09F023EC15F0A0A0C9EF09F0CBEFF2
:1013900009F0D4EF09F0A1A0D0EF09F0D2EF09F0E5
:1013A000D4EF09F021EC15F09DA8D9EF09F0DBEF9F
:1013B00009F0E4EF09F09EA8E0EF09F0E2EF09F090
:1013C000E4EF09F01FEC15F09DAAE9EF09F0EBEF4F
:1013D00009F0F4EF09F09EAAF0EF09F0F2EF09F03E
:1013E000F4EF09F027EC15F09DA6F9EF09F0FBEFFB
:1013F00009F004EF0AF09EA600EF0AF002EF0AF0EF
:1014000004EF0AF01DEC15F042C0DAFF41C0D9FF2D
:1014100040C0FBFF3FC0FAFF7592110014EC15F0BD
:10142000BA0E4D6E000E4E6E68C04FF005EC0FF018
:10143000746EB50E4D6E000E4E6E2DC04FF005EC65
:101440000FF0746E730E4D6E000E4E6E99EC0FF031
:10145000746E6E0E4D6E000E4E6E99EC0FF0746E43
:101460009E0E0001E36F000EE46F020EE56F060EA4
:10147000E66F280EE76F100EE86F80EC13F0746EC5
:101480002F04D8A446EF0AF048EF0AF0B2EF0AF0B2
:10149000BA0E4D6E000E4E6E68C04FF005EC0FF0A8
:1014A000746EB50E4D6E000E4E6E2DC04FF005ECF5
:1014B0000FF0746E000E2F6E050E2D18D8A463EF7A
:1014C0000AF065EF0AF040EF0AF06850D8A46BEF1D
:1014D0000AF06DEF0AF040EF0AF09E0E506E000E1B
:1014E000516E010E526EBAEC0EF0746E9E0E00013B
:1014F000E36F000EE46F020EE56F060EE66F1D0E41
:10150000E76F100EE86F80EC13F0746E720E4D6E84
:10151000000E4E6E99EC0FF0746E6F0E4D6E000E55
:101520004E6E99EC0FF0746E730E4D6E000E4E6E93
:10153000DBEC0FF0746E710E4D6E000E4E6EDBEC38
:101540000FF0746E700E4D6E000E4E6EDBEC0FF0F1
:10155000746E6E0E4D6E000E4E6EDBEC0FF0746E00
:1015600040EF0AF0020E2F18D8A4B9EF0AF0BBEF33
:101570000AF040EF0AF0BA0E4D6E000E4E6E68C0D3
:101580004FF005EC0FF0746EB50E4D6E000E4E6E02
:101590002DC04FF005EC0FF0746E720E4D6E000E04
:1015A0004E6EDBEC0FF0746E6F0E4D6E000E4E6ED5
:1015B000DBEC0FF0746E2E50D8A4E1EF0AF0E3EFED
:1015C0000AF013EF0BF09E0E0001E36F000EE46FC4
:1015D000020EE56F040EE66F0D0EE76F100EE86F5A
:1015E00080EC13F0746E730E4D6E000E4E6EDBECDD
:1015F0000FF0746E6E0E4D6E000E4E6EDBEC0FF043
:10160000746E710E4D6E000E4E6E99EC0FF0746E8E
:10161000700E4D6E000E4E6E99EC0FF0746E010E52
:101620002E6E4AEF0BF09E0E506E000E516E010EA4
:10163000526EBAEC0EF0746E9E0E0001E36F000E57
:10164000E46F020EE56F060EE66F280EE76F100ED0
:10165000E86F80EC13F0746E730E4D6E000E4E6EDC
:1016600099EC0FF0746E6E0E4D6E000E4E6E99EC8E
:101670000FF0746E710E4D6E000E4E6EDBEC0FF0BF
:10168000746E700E4D6E000E4E6EDBEC0FF0746ECD
:10169000000E2E6E000E2F6E40EF0AF007EF00F0E6
:1016A000010E4B6E43504410D8B459EF0BF05BEF72
:1016B0000BF06CEF0BF043C0D9FF44C0DAFFDF3012
:1016C000E832E832070B456E070E45646AEF0BF00F
:1016D0006CEF0BF0CFEF0BF0000E4B6EF0EF0BF05A
:1016E00043C0D9FF44C0DAFFDF30E832E832070BED
:1016F000456E010E466E452A80EF0BF0D8904636B7
:10170000452E7EEF0BF04650FF0A476E43C0D9FFCF
:1017100044C0DAFFDF50070B486E4850020D940EAC
:10172000F324D96E000EF420DA6EDECF49F0DDCF5F
:101730004AF049C0D9FF4AC0DAFF4750DF16F0EF40
:101740000BF043C0D9FF44C0DAFFDF30E832E832A3
:10175000070B456E010E466E452AB1EF0BF0D8908F
:101760004636452EAFEF0BF043C0D9FF44C0DAFF39
:10177000DF50070B476E4750020D940EF324D96ECD
:10178000000EF420DA6EDECF48F0DDCF49F048C01D
:10179000D9FF49C0DAFF4650DF12F0EF0BF043C02B
:1017A000D9FF44C0DAFFDFBCD8EF0BF0DBEF0BF062
:1017B000010EDCEF0BF0000E456E466A4650000A43
:1017C000D8B4E5EF0BF06CEF0BF04550000AD8B43D
:1017D00070EF0BF0010AD8B4A1EF0BF06CEF0BF037
:1017E0004B50120058505910D8A4F9EF0BF0FBEFF2
:1017F0000BF000EF0CF0000E0001E26F8EEF0CF02A
:10180000080E58244D6E000E59204E6EB3EC12F0A7
:101810000001E26F090E58244D6E000E59204E6EE5
:10182000B3EC12F00001E26F000EE16F000EE06F0A
:10183000E05158244D6EE15159204E6EB3EC12F038
:101840000001E04BE12BE1BF2FEF0CF0E15109E18A
:10185000080EE05DD8A02FEF0CF031EF0CF018EF80
:101860000CF01A0E5A6EF80EE82EFED75A2EFCD740
:1018700000D058C050F059C051F0380E526EBAEC3A
:101880000EF0070E5A6E7D0EE82EFED75A2EFCD7AC
:1018900000F058C050F059C051F0380E526EBAECFA
:1018A0000EF0320EE82EFED758C050F059C051F05D
:1018B000380E526EBAEC0EF058C050F059C051F0CC
:1018C000010E526EBAEC0EF058C050F059C051F0F3
:1018D000020E526EBAEC0EF058C050F059C051F0E2
:1018E000060E526EBAEC0EF058C050F059C051F0CE
:1018F0000C0E526EBAEC0EF058C050F059C051F0B8
:10190000380E526EBAEC0EF058C050F059C051F07B
:10191000800E526EBAEC0EF00001E26FE25112003E
:10192000010E4C6E43504410D8B499EF0CF09BEF6D
:101930000CF0ACEF0CF043C0D9FF44C0DAFFDF304D
:10194000E832E832070B466E070E4664AAEF0CF049
:10195000ACEF0CF00FEF0DF0000E4C6E24EF0DF01D
:1019600043C0D9FF44C0DAFFDF30E832E832070B6A
:10197000466E010E476E462AC0EF0CF0D8904736EF
:10198000462EBEEF0CF04750FF0A486E43C0D9FF09
:1019900044C0DAFFDF50070B496E4950020D800E3C
:1019A000F324D96E000EF420DA6EDECF4AF0DDCFDC
:1019B0004BF04AC0D9FF4BC0DAFF4850DF1624EF86
:1019C0000DF043C0D9FF44C0DAFFDF30E832E8321F
:1019D000070B466E010E476E462AF1EF0CF0D890C9
:1019E0004736462EEFEF0CF043C0D9FF44C0DAFF74
:1019F000DF50070B486E4850020D800EF324D96E5D
:101A0000000EF420DA6EDECF49F0DDCF4AF049C097
:101A1000D9FF4AC0DAFF4750DF1224EF0DF04550DE
:101A2000466E476A4750000AD8B419EF0DF0ACEF84
:101A30000CF04650000AD8B4B0EF0CF0010AD8B44C
:101A4000E1EF0CF0ACEF0CF04C501200010E476EC1
:101A500043504410D8A42FEF0DF031EF0DF09AEF62
:101A60000DF0000E476EB9EF0DF0F18CB9EF0DF0EF
:101A7000F19CB9EF0DF020EE04F04350D92644500C
:101A8000DA22DF50456E466A4650000AD8B44BEF62
:101A90000DF031EF0DF04550000AD8B435EF0DF0E0
:101AA000010AD8B438EF0DF031EF0DF0F18AB9EF3B
:101AB0000DF0F19AB9EF0DF020EE04F04350D92665
:101AC0004450DA22DF50456E466A4650000AD8B4C8
:101AD0006CEF0DF031EF0DF04550000AD8B456EF21
:101AE0000DF0010AD8B459EF0DF031EF0DF0F18887
:101AF00031EF0DF0F19831EF0DF031EF0DF020EEF8
:101B000004F04350D9264450DA22DF50456E466A2D
:101B10004650000AD8B48FEF0DF07DEF0DF0455020
:101B2000000AD8B477EF0DF0010AD8B47AEF0DF0BF
:101B30007DEF0DF020EE03F04350D9264450DA2219
:101B4000DF50456E466A4650000AD8B4AAEF0DF041
:101B500031EF0DF04550000AD8B43BEF0DF0010A0B
:101B6000D8B45CEF0DF0030AD8B47FEF0DF031EF7D
:101B70000DF047501200010E0001E26F585059104D
:101B8000D8A4C5EF0DF0C7EF0DF0CBEF0DF0000EB0
:101B9000E26F1FEF0EF05B0602EF0EF058C050F040
:101BA00059C051F05B50800F526EBAEC0EF000013C
:101BB000E26F1FEF0EF058C050F059C051F05B506B
:101BC000C00F526EBAEC0EF00001E26F1FEF0EF084
:101BD00058C050F059C051F05B50940F526EBAEC9F
:101BE0000EF00001E26F1FEF0EF058C050F059C028
:101BF00051F05B50D40F526EBAEC0EF00001E26F60
:101C00001FEF0EF05A50E06FE16BE151000AD8B4BB
:101C10000CEF0EF01FEF0EF0E051010AD8B4CEEF3A
:101C20000DF0030AD8B4DBEF0DF0010AD8B4E8EFE9
:101C30000DF0070AD8B4F5EF0DF01FEF0EF0E251EA
:101C40001200010E476E43504410D8A42AEF0EF044
:101C50002CEF0EF04EEF0EF0000E476E6DEF0EF013
:101C600043C0D9FF44C0DAFFDECF01F0DDCF02F080
:101C70006DEF0EF043C0D9FF44C0DAFFDECF03F0B2
:101C8000DDCF04F06DEF0EF043C0D9FF44C0DAFFA2
:101C9000DECF05F0DDCF06F06DEF0EF020EE03F0A5
:101CA0004350D9264450DA22DF50456E466A4650EA
:101CB000000AD8B45EEF0EF02CEF0EF04550000A8B
:101CC000D8B430EF0EF0010AD8B43AEF0EF0030AA0
:101CD000D8B444EF0EF02CEF0EF0475012005050E5
:101CE0005110D8A476EF0EF078EF0EF07CEF0EF0E6
:101CF000000E556EB8EF0EF0090E5024436E000E24
:101D00005120446E010E456E90EC0CF0000E576EA3
:101D1000000E566E56505024436E57505120446E5C
:101D200056C053F052C054F0532A99EF0EF0D89099
:101D30005432532E97EF0EF05450010B456E90EC39
:101D40000CF0564A572A57BEAFEF0EF0575009E134
:101D5000080E565CD8A0AFEF0EF0B1EF0EF08AEF90
:101D60000EF050C04DF051C04EF0AFEC13F0556E78
:101D70005550120050505110D8A4C1EF0EF0C3EFCF
:101D80000EF0C7EF0EF0000E556E03EF0FF0090EC8
:101D90005024436E000E5120446E000E456E90ECB0
:101DA0000CF0000E576E000E566E56505024436EC7
:101DB00057505120446E56C053F052C054F0532A2D
:101DC000E4EF0EF0D8905432532EE2EF0EF0545060
:101DD000010B456E90EC0CF0564A572A57BEFAEFAD
:101DE0000EF0575009E1080E565CD8A0FAEF0EF03D
:101DF000FCEF0EF0D5EF0EF050C04DF051C04EF09C
:101E0000AFEC13F0556E555012004D504E10D8A443
:101E10000CEF0FF00EEF0FF01AEF0FF0090E4F64FA
:101E200014EF0FF016EF0FF01AEF0FF0000E506ED8
:101E30004DEF0FF04DC043F04EC044F04F50010B3A
:101E4000456E90EC0CF0506E010E4D24436E000E6A
:101E50004E20446ED8904F30010B456E90EC0CF044
:101E6000506E020E4D24436E000E4E20446E4F40C5
:101E7000E8423F0B010B456E90EC0CF0506E030EE8
:101E80004D24436E000E4E20446E4F38E8461F0B23
:101E9000010B456E90EC0CF0506E505012004A5001
:101EA0004B10D8A456EF0FF058EF0FF05CEF0FF087
:101EB000000E4C6E97EF0FF0D59E4AC043F04BC01A
:101EC00044F0E9EC12F04AC043F04BC044F09FEC00
:101ED00010F04AC043F04BC044F01DEC10F0F28A01
:101EE000F294F28EF28C4AC0D9FF4BC0DAFFDECFFB
:101EF00021F0DDCF22F04AC043F04BC044F020EE89
:101F000003F04A50D9264B50DA22DECF45F0DDCF20
:101F100046F097EC11F04C6E20EE03F04A50D926B3
:101F20004B50DA22DECF1FF0DDCF20F0D58E4C50A3
:101F30001200010E506E4D504E10D8A4A2EF0FF0BB
:101F4000A4EF0FF0A8EF0FF0000E506ED9EF0FF0D6
:101F500033C051F04DC0D9FF4EC0DAFFDF50070B40
:101F60004F6E51504F18F80B4F18516E4DC0D9FF9E
:101F70004EC0DAFFDF30E832E832070B4F6E4F46D3
:101F80004F464F4651504F18C70B4F18516E519C3A
:101F90004DC0D9FF4EC0DAFFDFAC02D0518E01D068
:101FA000519E510E436E000E446E010E456E90EC34
:101FB0000CF050501200010E506E4D504E10D8A42F
:101FC000E4EF0FF0E6EF0FF0EAEF0FF0000E506EC7
:101FD0001BEF10F032C051F04DC0D9FF4EC0DAFFF8
:101FE000DF50070B4F6E51504F18F80B4F18516EC2
:101FF0004DC0D9FF4EC0DAFFDF30E832E832070BC0
:102000004F6E4F464F464F4651504F18C70B4F1813
:10201000516E519C4DC0D9FF4EC0DAFFDFAC02D0EB
:10202000518E01D0519E510E436E000E446E000E33
:10203000456E90EC0CF05050120043504410D8A460
:1020400024EF10F026EF10F03BEF10F05EEF10F0F1
:10205000D59620EE05F04350D9264450DA22DF50C1
:10206000456ED5504518F80B4518D56E5EEF10F04B
:10207000D5865EEF10F020EE06F04350D92644508E
:10208000DA22DFB646EF10F049EF10F0010E4AEF0A
:1020900010F0000E456E466A4650000AD8B453EF61
:1020A00010F026EF10F04550000AD8B438EF10F0C9
:1020B000010AD8B428EF10F026EF10F01200010E3C
:1020C000546E51505210D8A468EF10F06AEF10F01F
:1020D0006EEF10F0000E546E9DEF10F034C055F00E
:1020E00051C0D9FF52C0DAFFDF50070B536E555075
:1020F0005318F80B5318556E51C0D9FF52C0DAFF70
:10210000DF30E832E832070B536E534653465346EE
:1021100055505318C70B5318556E559C51C0D9FFD5
:1021200052C0DAFFDFAC02D0558E01D0559E550E5D
:102130004D6E000E4E6EB3EC12F054501200435030
:102140004410D8A4A6EF10F0A8EF10F0BBEF10F0E9
:10215000DEEF10F0D58A20EE06F04350D926445029
:10216000DA22DFA202D0D58801D0D598DEEF10F0B8
:10217000D59ADEEF10F020EE06F04350D9264450F9
:10218000DA22DFB0C6EF10F0C9EF10F0010ECAEF8F
:1021900010F0000E456E466A4650000AD8B4D3EFE0
:1021A00010F0A8EF10F04550000AD8B4B8EF10F0C6
:1021B000010AD8B4AAEF10F0A8EF10F01200010E37
:1021C000476E43504410D8A4E8EF10F0EAEF10F047
:1021D000FDEF10F0000E476E1CEF11F0F28CF28E46
:1021E000F2881CEF11F0F28CF28EF0861CEF11F0E9
:1021F000F28CF28EF0881CEF11F020EE03F04350C9
:10220000D9264450DA22DF50456E466A4650000A0D
:10221000D8B40DEF11F0EAEF10F04550000AD8B431
:10222000EEEF10F0010AD8B4F3EF10F0030AD8B4BF
:10223000F8EF10F0EAEF10F047501200730E516EF5
:10224000000E526E5FEC10F0720E516E000E526E68
:102250005FEC10F0710E516E000E526E5FEC10F0DC
:10226000700E516E000E526E5FEC10F06F0E516EDC
:10227000000E526E5FEC10F06E0E516E000E526E3C
:102280005FEC10F09E0E586E000E596EF2EC0BF0E3
:10229000BA0E516E000E526E4FEC13F0B50E516E29
:1022A000000E526E4FEC13F06B0E4C6E000E4D6E26
:1022B0004CEC14F01200010E0001E06F5850591060
:1022C000D8B465EF11F067EF11F070EF11F05A50CC
:1022D0005B10D8A46EEF11F070EF11F086EF11F0E3
:1022E000000EE06F95EF11F058C050F059C051F05A
:1022F0005AC0F6FF5BC0F7FFF86A0800F5CF52F04E
:102300006FEC0EF00001E06F5A4A5B2A5AC0F6FFEC
:102310005BC0F7FFF86A0800F5500009D8A493EFF6
:1023200011F095EF11F074EF11F0E0511200010E71
:10233000496E43504410D8A4A0EF11F0A2EF11F061
:10234000AEEF11F0000E496ED1EF11F045C0D6FF8F
:10235000D1EF11F04650D76EA6EF11F020EE06F047
:102360004350D9264450DA22DFB4B9EF11F0BCEF64
:1023700011F0010EBDEF11F0000E476E486A485093
:10238000000AD8B4C6EF11F0A2EF11F04750000ACE
:10239000D8B4AAEF11F0010AD8B4A6EF11F0A2EF59
:1023A00011F049501200010E476E43504410D8A45A
:1023B000DCEF11F0DEEF11F0EBEF11F0000E476EE5
:1023C0000AEF12F0F2980AEF12F0F0960AEF12F00C
:1023D000F0980AEF12F020EE03F04350D926445053
:1023E000DA22DF50456E466A4650000AD8B4FBEF49
:1023F00011F0DEEF11F04550000AD8B4E2EF11F011
:10240000010AD8B4E5EF11F0030AD8B4E8EF11F0EF
:10241000DEEF11F047501200010E476E435044109A
:10242000D8A415EF12F017EF12F024EF12F0000EFF
:10243000476E43EF12F0F29243EF12F0F09043EF49
:1024400012F0F09243EF12F020EE03F04350D92641
:102450004450DA22DF50456E466A4650000AD8B42E
:1024600034EF12F017EF12F04550000AD8B41BEF0A
:1024700012F0010AD8B41EEF12F0030AD8B421EF0B
:1024800012F017EF12F04750120054505510D8A414
:102490004CEF12F04EEF12F052EF12F0000E566EAB
:1024A0007AEF12F054C043F055C044F0D3EC11F071
:1024B000566E54C043F055C044F00CEC12F0566E0A
:1024C00054C043F055C044F026EC0DF0566E54C095
:1024D00051F055C052F034EC14F054C043F055C0E4
:1024E00044F021EC0EF054C043F055C044F0DFEC52
:1024F00010F0566E5650120039503A10D8A483EF9F
:1025000012F085EF12F08FEF12F0B2EF12F03BC035
:10251000D6FFB2EF12F03C50D76E87EF12F020EEEC
:1025200006F03950D9263A50DA22DFB49AEF12F089
:102530009DEF12F0010E9EEF12F0000E3D6E3E6A0E
:102540003E50000AD8B4A7EF12F085EF12F03D50CC
:10255000000AD8B48BEF12F0010AD8B487EF12F05A
:1025600085EF12F012004D504E10D8B4BAEF12F0B1
:10257000BCEF12F0CDEF12F04DC0D9FF4EC0DAFF24
:10258000DF30E832E832070B4F6E070E4F64CBEFB7
:1025900012F0CDEF12F0D1EF12F0000E506EE7EF17
:1025A00012F04DC043F04EC044F050EC0BF0506EB2
:1025B0004DC043F04EC044F04DC0D9FF4EC0DAFFCD
:1025C000000EDFBE010E456E90EC0CF0506E5050C8
:1025D000120043504410D8A4F0EF12F0F2EF12F0C2
:1025E000FAEF12F01DEF13F0D58C1DEF13F0D59C10
:1025F0001DEF13F020EE06F04350D9264450DA22A6
:10260000DFB405EF13F008EF13F0010E09EF13F03C
:10261000000E456E466A4650000AD8B412EF13F019
:10262000F2EF12F04550000AD8B4F7EF12F0010AA9
:10263000D8B4F4EF12F0F2EF12F01200F20EF66ED0
:10264000270EF76E000EF86E00EE80F010EE3FF0F1
:102650000900F5CFEEFFE550E150FAE1F80EF66E15
:10266000290EF76E000EF86E00EE5CF010EE18F01A
:102670000900F5CFEEFFE550E150FAE100EEBFF0C2
:10268000210EEE6AE806FDE100EE01F0380EEE6A7A
:10269000E806FDE17590759200010EEF0AF05150C9
:1026A0005210D8A456EF13F058EF13F05CEF13F06C
:1026B000000E536E7EEF13F051C04DF052C04EF03D
:1026C000B3EC12F0536E010E51244D6E000E5220E9
:1026D0004E6EB3EC12F0536E020E51244D6E000E8E
:1026E00052204E6EB3EC12F0536E030E51244D6E19
:1026F000000E52204E6EB3EC12F0536E5350120087
:102700000001E351E411D8B488EF13F08AEF13F01D
:1027100093EF13F0E751E811D8A491EF13F093EF82
:1027200013F097EF13F0000EE96FADEF13F0E3C075
:1027300058F0E4C059F0E5C05AF0E6C05BF0BBECDD
:102740000DF0E3C058F0E4C059F0E7C05AF0E8C01B
:102750005BF05BEC11F00001E96FE95112004D50A4
:102760004E10D8A4B6EF13F0B8EF13F0BCEF13F08F
:10277000000E4F6ED4EF13F0080E4D24436E000E82
:102780004E20446E010E456E90EC0CF000D000D04F
:1027900000F0080E4D24436E000E4E20446E000ED5
:1027A000456E90EC0CF04F6E4F5012002D50D8A497
:1027B000DCEF13F0DEEF13F0F5EF13F0090E2D6EE2
:1027C000010E2F6E6850D8B4E8EF13F0EAEF13F063
:1027D000EDEF13F06806F8EF13F0020E2F6E020E05
:1027E000686E000E2D6EF8EF13F0010E2F6E2D06A1
:1027F0001200890F8A0F8B0F8C0F8D0F800F810FA6
:10280000820F830F840F920F930F940F950F960FE3
:10281000030B131B232B333B0800AC2700DC0B03FB
:1028200008502941000000222A323A00020A121AF6
:0128300000A7
:10283200F2942050D76E1FC0D6FF21502210D8B478
:1028420025EF14F027EF14F033EF14F002D833EF32
:1028520014F00500FA6E2150FD6E2250FE6EFF6AE2
:10286200FA501200120051505210D8A43BEF14F04B
:102872003DEF14F041EF14F0000E536E4AEF14F0E6
:10288200020E51244D6E000E52204E6EB3EC12F029
:10289200536E53501200010E4E6E4C504D10D8A480
:1028A20055EF14F057EF14F05BEF14F0000E4E6E7C
:1028B20061EF14F04CC043F04DC044F050EC0BF00B
:1028C2004E501200F09205500610D8B46BEF14F07F
:1028D2006DEF14F079EF14F002D879EF14F00500DF
:1028E200FA6E0550FD6E0650FE6EFF6AFA50120037
:1028F2001200F09003500410D8B482EF14F084EF69
:1029020014F090EF14F002D890EF14F00500FA6E74
:102912000350FD6E0450FE6EFF6AFA501200120060
:10292200F29201500210D8B499EF14F09BEF14F018
:10293200A7EF14F002D8A7EF14F00500FA6E0150C9
:10294200FD6E0250FE6EFF6AFA5012001200020E75
:102952002F6E000E2E6E020E686E000E2D6EA80EE9
:10296200396E000E3A6E0B0E3C6EDC0E3B6E7CEC4A
:1029720012F01200AF0E546E000E556E45EC12F0BE
:10298200A80E4A6E000E4B6E4FEC0FF01200396E1D
:10299200F2903950D8A4D0EF14F0D2EF14F0D4EF63
:1029A20014F0D4EF14F01200396EF2903950D8A41A
:1029B200DDEF14F0DFEF14F0E1EF14F0E1EF14F0CB
:1029C2001200396EF2903950D8A4EAEF14F0ECEF0D
:1029D20014F0EEEF14F0EEEF14F01200396EF290F4
:1029E2003950D8A4F7EF14F0F9EF14F0FBEF14F01C
:1029F200FBEF14F01200222A121A685A622A281ACD
:102A0200622A027A72410101093028111810A1923A
:102A12001650B36E15C0B2FF12009E901C50CF6EBE
:102A22001BC0CEFF12001EEC11F0BBEC14F0120022
:102A32009E9230C0CCFF12009E9612009D9812000A
:0E2A4200A19012009E9412009E9C12001200A1
:020000040030CA
:0E000000FF071F1FFF8185FF0FC00FE00F409D
:00000001FF
